:100000000C942A000C9447000C9447000C94470071
:100010000C9447000C9447000C9481000C9447000A
:100020000C9447000C9447000C9447000C94470034
:100030000C9447000C9447000C9447000C94470024
:100040000C9447000C9447000C9447000C949300C8
:100050000C94470011241FBECFE5D4E0DEBFCDBF16
:1000600010E0A0E6B0E0E6E1FBE002C005900D92F2
:10007000A839B107D9F710E0A8E9B0E001C01D9296
:10008000AE3CB107E1F70E945E050C9489050C9423
:100090000000E091AB00F091AC009F012F5F3F4F5B
:1000A0003093AC002093AB00808308958A3034F005
:1000B00090919C00911104C097E503C090E301C0AA
:1000C00097E3890F0E94490081E080939B00089587
:1000D000AC0120919D0030919E0080E024173507EF
:1000E00020F0241B350B8F5FF9CF30939E002093B7
:1000F0009D0090919B00911101C081110C945600BC
:1001000008951F920F920FB60F9211248F939F9311
:100110009BB380E189278BBB9F918F910F900FBE7E
:100120000F901F9018951F920F920FB60F921124E7
:100130008F938091C2008F5F8093C2008F910F9048
:100140000FBE0F901F9018958FEF84BB15BA80E1FA
:100150008ABB8FEE8BBB1FBC8AE08EBD8BE083BF5A
:1001600085E98CBF82E089BF7894089585BB0895A6
:1001700045B321E030E0662349F0B90102C0660FC3
:10018000771F8A95E2F7CB01842B09C0B90102C021
:10019000660F771F8A95E2F7CB018095842385BB94
:1001A00008959091980090FD09C091FD0AC092FDBC
:1001B0000BC093FF11C083E028E008C080E021E07D
:1001C00005C081E022E002C082E024E02095922375
:1001D000909398008F5F089580E00895009781F0D4
:1001E0009C0140E050E060EB71E78BE090E00E9402
:1001F0006705215031093BBD2ABD89B7806104C024
:100200001BBC1ABC89B78F7E89BF08958091C1003D
:10021000811102C00E942B0180916000EDEAF0E0A4
:1002200020E298E09E0F3081303211F0208381E08F
:1002300031969E13F8CFE5EBF0E020E298E09E0FB8
:100240003081303211F0208381E031969E13F8CF57
:100250008093600008958AB380658ABB87B3846EFB
:1002600087BB80E29EE4A0E0B0E08093BD00909365
:10027000BE00A093BF00B093C00081E08093C10096
:100280000C9406014F925F926F927F928F929F9291
:10029000AF92BF92CF92DF92EF92FF920F931F9394
:1002A000CF93DF93CDB7DEB70B891C896D887E882D
:1002B0007E0127E1E20EF11C023008F032C1183055
:1002C00008F02FC18091C100811102C00E942B0152
:1002D0008FE9882E80E0982E38E0039F600111247A
:1002E0004424439453013FEFA31AB30AF30120813E
:1002F000222309F416C12532B1F0183009F40FC1D8
:10030000812F90E0F601E80FF91FE355FF4F308190
:100310003213409260001F5F8C0D9D1DFC01E35560
:10032000FF4F2083FCC0F30181815301803329F00A
:10033000F2E0AF0EB11C512C07C023E0A20EB11C9D
:10034000F30182815524539490ED980F9A3078F4FC
:10035000F50100E05F0190ED980F9A3048F4802F8E
:10036000880F880F080F000F090F8191F3CF00E06D
:100370009092AC008092AB0010929B00833609F4FF
:1003800061C04CF4853209F46EC08835C1F1882310
:1003900009F4C7C06BC0833709F45DC01CF4843610
:1003A00031F064C0853719F0883749F15FC03701F3
:1003B000F2E06F0E711CF7012081318130939E00B5
:1003C00020939D00843661F437FF0AC03195219552
:1003D000310930939E0020939D008DE20E944900D8
:1003E00080E197E20E94680088EE93E00E94680036
:1003F00084E690E00E9468008AE090E01BC091E0F3
:10040000883509F090E090939C003701F2E06F0E80
:10041000711CF7018081918190939E0080939D00D3
:1004200080E090E10E94680080E091E00E94680016
:1004300080E190E00E94680080919D000E9456003B
:10044000730114C03701F2E06F0E711CF701808157
:100450000E944900F5CFF7018081918197012E5FBD
:100460003F4F790105C085E20E9449008FE990E085
:10047000E091AB00F091AC0010829093AC008093BF
:10048000AB009C012F5F3F4FF90131974081411133
:1004900008C03093AC002093AB0040916000010F86
:1004A0001AC01016B4F70150EDCF1830C1F051103A
:1004B0001CC050E2212F30E0F601E20FF31FE3559C
:1004C000FF4F6081651341E01F5F2C0D3D1DF90159
:1004D000E355FF4F5083202F211B121634F3409316
:1004E000600020916000FC0115C050E3E3CF18309C
:1004F000A1F0812F90E0D601A80FB91FA355BF4FDF
:100500004C91431321E01F5F8C0D9D1DDC01A35511
:10051000BF4F3C9331913111EACF209360003501F8
:10052000E1CEDF91CF911F910F91FF90EF90DF907F
:10053000CF90BF90AF909F908F907F906F905F9083
:100540004F9008958F929F92AF92BF92CF92DF9279
:10055000EF92FF9289B78D7F89BF2091C20022233D
:1005600009F474C040E253E0249FC001259F900D20
:10057000112420E06C01EE24D7FCE094FE2CE22F45
:10058000F0E0EE0FFF1FEF59FF4F0190F081E02DDB
:10059000309731F140815181628173814A015B0161
:1005A00031E0831A9108A108B1083EEF83163FEFAE
:1005B0009306A306B30690F4C416D506E606F7061E
:1005C00028F0108211821282138208C04C195D0932
:1005D0006E097F0940835183628373832F5FCFCF7E
:1005E0004091BD005091BE006091BF007091C0006D
:1005F000AA2797FDA095BA2F84179507A607B707D6
:1006000048F01092BD001092BE001092BF001092F0
:10061000C0000CC0481B590B6A0B7B0B4093BD00FC
:100620005093BE006093BF007093C0001092C20050
:1006300099B39F70292F209580919A008223209151
:100640009800822B8093980090939A0089B78260DB
:1006500089BF8091C100882309F4B1C08091BD0099
:100660009091BE00A091BF00B091C000892B8A2B51
:100670008B2B09F0A4C088EE93E0A0E0B0E080935B
:10068000BD009093BE00A093BF00B093C000209126
:1006900099002E30E0F4E22FF0E0EB59FF4F80811B
:1006A000211105C040E157E260E070E007C02C3046
:1006B00008F466C040E25EE460E070E04093BD0094
:1006C0005093BE006093BF007093C00059C02E319C
:1006D00071F480EA9FE0A0E0B0E08093BD009093C9
:1006E000BE00A093BF00B093C0008CE049C02F3182
:1006F00071F480EA9FE0A0E0B0E08093BD009093A9
:10070000BE00A093BF00B093C00080E039C020338A
:10071000B1F480916000882319F08CE080939900F7
:100720001092600080E29EE4A0E0B0E08093BD0003
:100730009093BE00A093BF00B093C00040C0E1E022
:10074000822F90E0203218F4E0E00E9701C08097ED
:100750009595879590E0F0E0A3E0EE0FFF1FAA9536
:10076000E1F78E0F9F1FFC01E355FF4F808120FDB5
:1007700005C0859585958595859501C08F708061AB
:100780002F5F209399004BB390E09C01220F331F01
:10079000220F331F342F3F7A3061422F4074342BA5
:1007A0003BBB38B364E0880F991F6A95E1F7807E00
:1007B0002470822B232F2B71822B88BBDC98FF9017
:1007C000EF90DF90CF90BF90AF909F908F90089563
:1007D00082ED94E09093C9008093C8001092C50008
:1007E0001092C4001092C3008FEF9FEFDC01809342
:1007F000CA009093CB00A093CC00B093CD00089595
:100800000F931F93CF93DF930E94D100C82F809145
:10081000C3009091C4008230910509F49AC0F8F4A5
:10082000009729F1019709F044C18DE790E09F936B
:100830008F931F921F920E94420180E990E09F9344
:100840008F931F9281E08F930E9442018DB79EB7D4
:1008500008960FB6F8949EBF0FBE8DBF6DC0833053
:10086000910509F4B1C0049709F466C022C183E779
:1008700090E09F938F931F921F920E9442010F90CE
:100880000F900F900F90CC2309F413C12091C60054
:100890003091C7004AE0429FC001439F900D112450
:1008A0008C0F911D9093C7008093C6008BE790E05A
:1008B0009F938F938091C5008F9381E08F930E94C7
:1008C00042018091C5008F5F0F900F900F900F90A5
:1008D000843019F08093C500ECC01092C5002091BF
:1008E000C6003091C7008091C8009091C9002817B8
:1008F000390759F482E090E09093C4008093C300DC
:1009000080EC96ECADE2B0E00AC081E090E090931C
:10091000C4008093C30080E894E8AEE1B0E0809327
:10092000CA009093CB00A093CC00B093CD0010925E
:10093000C7001092C600BDC0CC2309F4ADC0109210
:10094000C4001092C300DF91CF911F910F910C94BE
:10095000060184E890E09F938F931F921F920E945C
:10096000420189E890E09F938F931F92D1E0DF933B
:100970000E9442018DB79EB708960FB6F8949EBFAD
:100980000FBE8DBFCC2371F083E090E09093C40044
:100990008093C300D093C500D0E0D093C700C0932C
:1009A000C60087C08091CA009091CB00A091CC0076
:1009B000B091CD00892B8A2B8B2B09F07AC0109235
:1009C000C4001092C30075C08CE890E09F938F9391
:1009D0001F921F920E9442018091C7008F938091C5
:1009E000C6008F9305E910E01F930F931F92D1E08B
:1009F000DF930E9442018DB79EB70A960FB6F89416
:100A00009EBF0FBE8DBFCC2309F453C02091C600FA
:100A10003091C7004AE0429FC001439F900D1124CE
:100A20008C0F911D9093C7008093C6002091C50044
:100A30002F5F2093C5002430E1F59F938F931F9380
:100A40000F931F92DF930E9442011092C500809184
:100A5000C6009091C7009093C9008093C80010927F
:100A6000C7001092C60084E090E09093C400809389
:100A7000C30080E894E8AEE1B0E08093CA009093B0
:100A8000CB00A093CC00B093CD000F900F900F90AF
:100A90000F900F900F900DC08091CA009091CB00E5
:100AA000A091CC00B091CD00892B8A2B8B2B09F41F
:100AB00046CFDF91CF911F910F9108950E94A4001E
:100AC0000E94E8030E9400040E94A202FBCFA1E260
:100AD0001A2EAA1BBB1BFD010DC0AA1FBB1FEE1FB8
:100AE000FF1FA217B307E407F50720F0A21BB30B03
:100AF000E40BF50B661F771F881F991F1A9469F77F
:100B000060957095809590959B01AC01BD01CF01DA
:060B10000895F894FFCFE8
:100B160001CA000000030303020208000C000100E2
:100B2600060002434C4F53454409002A0057524FD2
:100B36004E4720004F50454E000909004E455720AC
:080B4600434F44450025640003
:00000001FF
